{
	"_format": "hh-sol-artifact-1",
	"contractName": "ICOPlatform",
	"sourceName": "contracts/ICOPlatform.sol",
	"abi": [
		{
			"inputs": [],
			"stateMutability": "nonpayable",
			"type": "constructor"
		},
		{
			"inputs": [],
			"name": "buyToken",
			"outputs": [],
			"stateMutability": "payable",
			"type": "function"
		},
		{
			"inputs": [],
			"name": "checkICOTokenBalance",
			"outputs": [
				{
					"internalType": "uint256",
					"name": "",
					"type": "uint256"
				}
			],
			"stateMutability": "view",
			"type": "function"
		},
		{
			"inputs": [],
			"name": "checkManagerBalance",
			"outputs": [
				{
					"internalType": "uint256",
					"name": "",
					"type": "uint256"
				}
			],
			"stateMutability": "view",
			"type": "function"
		},
		{
			"inputs": [],
			"name": "getTokenDetails",
			"outputs": [
				{
					"internalType": "string",
					"name": "name",
					"type": "string"
				},
				{
					"internalType": "string",
					"name": "symbol",
					"type": "string"
				},
				{
					"internalType": "uint256",
					"name": "balance",
					"type": "uint256"
				},
				{
					"internalType": "uint256",
					"name": "supply",
					"type": "uint256"
				},
				{
					"internalType": "uint256",
					"name": "tokenPrice",
					"type": "uint256"
				},
				{
					"internalType": "address",
					"name": "tokenaddress",
					"type": "address"
				},
				{
					"internalType": "uint256",
					"name": "soldtokens",
					"type": "uint256"
				}
			],
			"stateMutability": "view",
			"type": "function"
		},
		{
			"inputs": [
				{
					"internalType": "address",
					"name": "_user",
					"type": "address"
				}
			],
			"name": "getUserTokenBalance",
			"outputs": [
				{
					"internalType": "uint256",
					"name": "userBalance",
					"type": "uint256"
				}
			],
			"stateMutability": "view",
			"type": "function"
		},
		{
			"inputs": [],
			"name": "manager",
			"outputs": [
				{
					"internalType": "address",
					"name": "",
					"type": "address"
				}
			],
			"stateMutability": "view",
			"type": "function"
		},
		{
			"inputs": [],
			"name": "soldTokens",
			"outputs": [
				{
					"internalType": "uint256",
					"name": "",
					"type": "uint256"
				}
			],
			"stateMutability": "view",
			"type": "function"
		},
		{
			"inputs": [],
			"name": "tokenAddress",
			"outputs": [
				{
					"internalType": "address",
					"name": "",
					"type": "address"
				}
			],
			"stateMutability": "view",
			"type": "function"
		},
		{
			"inputs": [],
			"name": "tokenSalePrice",
			"outputs": [
				{
					"internalType": "uint256",
					"name": "",
					"type": "uint256"
				}
			],
			"stateMutability": "view",
			"type": "function"
		},
		{
			"inputs": [
				{
					"internalType": "address",
					"name": "_receiver",
					"type": "address"
				}
			],
			"name": "transferEther",
			"outputs": [],
			"stateMutability": "payable",
			"type": "function"
		},
		{
			"inputs": [],
			"name": "transferToManager",
			"outputs": [],
			"stateMutability": "payable",
			"type": "function"
		},
		{
			"inputs": [
				{
					"internalType": "address",
					"name": "_tokenAddress",
					"type": "address"
				}
			],
			"name": "updateToken",
			"outputs": [],
			"stateMutability": "nonpayable",
			"type": "function"
		},
		{
			"inputs": [
				{
					"internalType": "uint256",
					"name": "_tokenSalePrice",
					"type": "uint256"
				}
			],
			"name": "updateTokenSalePrice",
			"outputs": [],
			"stateMutability": "payable",
			"type": "function"
		},
		{
			"inputs": [],
			"name": "whoAmI",
			"outputs": [
				{
					"internalType": "address",
					"name": "sender",
					"type": "address"
				}
			],
			"stateMutability": "view",
			"type": "function"
		},
		{
			"inputs": [],
			"name": "withdrawAllTokens",
			"outputs": [],
			"stateMutability": "payable",
			"type": "function"
		}
	],
	"bytecode": "0x60806040526000600355348015601457600080fd5b50336000806101000a81548173ffffffffffffffffffffffffffffffffffffffff021916908373ffffffffffffffffffffffffffffffffffffffff160217905550611970806100646000396000f3fe6080604052600436106100e85760003560e01c8063cc8248841161008a578063ea37910b11610059578063ea37910b14610273578063f5aec88c1461027d578063ff332ab7146102ba578063ffdeb903146102eb576100e8565b8063cc824884146101c7578063ce10abd1146101f2578063da91254c1461021d578063e86790eb14610248576100e8565b80636b55e991116100c65780636b55e9911461014d5780637ad3def2146101695780639d76ea5814610192578063a4821719146101bd576100e8565b8063280da6fa146100ed578063481c6a75146100f75780635ed9ebfc14610122575b600080fd5b6100f5610307565b005b34801561010357600080fd5b5061010c610593565b604051610119919061108a565b60405180910390f35b34801561012e57600080fd5b506101376105b7565b60405161014491906110be565b60405180910390f35b61016760048036038101906101629190611119565b6105bd565b005b34801561017557600080fd5b50610190600480360381019061018b9190611119565b61064a565b005b34801561019e57600080fd5b506101a761071c565b6040516101b4919061108a565b60405180910390f35b6101c5610742565b005b3480156101d357600080fd5b506101dc6109c1565b6040516101e991906110be565b60405180910390f35b3480156101fe57600080fd5b50610207610a69565b60405161021491906110be565b60405180910390f35b34801561022957600080fd5b50610232610bc1565b60405161023f919061108a565b60405180910390f35b34801561025457600080fd5b5061025d610bc9565b60405161026a91906110be565b60405180910390f35b61027b610bcf565b005b34801561028957600080fd5b506102a4600480360381019061029f9190611119565b610c7b565b6040516102b191906110be565b60405180910390f35b3480156102c657600080fd5b506102cf610d2b565b6040516102e297969594939291906111d6565b60405180910390f35b6103056004803603810190610300919061127f565b610f6e565b005b60008054906101000a900473ffffffffffffffffffffffffffffffffffffffff1673ffffffffffffffffffffffffffffffffffffffff163373ffffffffffffffffffffffffffffffffffffffff1614610395576040517f08c379a000000000000000000000000000000000000000000000000000000000815260040161038c9061131e565b60405180910390fd5b6000600160009054906101000a900473ffffffffffffffffffffffffffffffffffffffff16905060008173ffffffffffffffffffffffffffffffffffffffff166370a08231306040518263ffffffff1660e01b81526004016103f7919061108a565b602060405180830381865afa158015610414573d6000803e3d6000fd5b505050506040513d601f19601f820116820180604052508101906104389190611353565b11610478576040517f08c379a000000000000000000000000000000000000000000000000000000000815260040161046f906113cc565b60405180910390fd5b8073ffffffffffffffffffffffffffffffffffffffff1663a9059cbb60008054906101000a900473ffffffffffffffffffffffffffffffffffffffff168373ffffffffffffffffffffffffffffffffffffffff166370a08231306040518263ffffffff1660e01b81526004016104ee919061108a565b602060405180830381865afa15801561050b573d6000803e3d6000fd5b505050506040513d601f19601f8201168201806040525081019061052f9190611353565b6040518363ffffffff1660e01b815260040161054c9291906113ec565b6020604051808303816000875af115801561056b573d6000803e3d6000fd5b505050506040513d601f19601f8201168201806040525081019061058f919061144d565b5050565b60008054906101000a900473ffffffffffffffffffffffffffffffffffffffff1681565b60035481565b60003411610600576040517f08c379a00000000000000000000000000000000000000000000000000000000081526004016105f7906114c6565b60405180910390fd5b8073ffffffffffffffffffffffffffffffffffffffff166108fc349081150290604051600060405180830381858888f19350505050158015610646573d6000803e3d6000fd5b5050565b60008054906101000a900473ffffffffffffffffffffffffffffffffffffffff1673ffffffffffffffffffffffffffffffffffffffff163373ffffffffffffffffffffffffffffffffffffffff16146106d8576040517f08c379a00000000000000000000000000000000000000000000000000000000081526004016106cf9061131e565b60405180910390fd5b80600160006101000a81548173ffffffffffffffffffffffffffffffffffffffff021916908373ffffffffffffffffffffffffffffffffffffffff16021790555050565b600160009054906101000a900473ffffffffffffffffffffffffffffffffffffffff1681565b60003411610785576040517f08c379a000000000000000000000000000000000000000000000000000000000815260040161077c90611558565b60405180910390fd5b6000600160009054906101000a900473ffffffffffffffffffffffffffffffffffffffff1690506000600254346107bc91906115d6565b905060008273ffffffffffffffffffffffffffffffffffffffff166370a08231306040518263ffffffff1660e01b81526004016107f9919061108a565b602060405180830381865afa158015610816573d6000803e3d6000fd5b505050506040513d601f19601f8201168201806040525081019061083a9190611353565b90508082111561087f576040517f08c379a000000000000000000000000000000000000000000000000000000000815260040161087690611679565b60405180910390fd5b8273ffffffffffffffffffffffffffffffffffffffff1663a9059cbb33846040518363ffffffff1660e01b81526004016108ba9291906113ec565b6020604051808303816000875af11580156108d9573d6000803e3d6000fd5b505050506040513d601f19601f820116820180604052508101906108fd919061144d565b61093c576040517f08c379a0000000000000000000000000000000000000000000000000000000008152600401610933906116e5565b60405180910390fd5b60008054906101000a900473ffffffffffffffffffffffffffffffffffffffff1673ffffffffffffffffffffffffffffffffffffffff166108fc349081150290604051600060405180830381858888f193505050501580156109a2573d6000803e3d6000fd5b5081600360008282546109b59190611705565b92505081905550505050565b600080600160009054906101000a900473ffffffffffffffffffffffffffffffffffffffff1690508073ffffffffffffffffffffffffffffffffffffffff166370a08231306040518263ffffffff1660e01b8152600401610a22919061108a565b602060405180830381865afa158015610a3f573d6000803e3d6000fd5b505050506040513d601f19601f82011682018060405250810190610a639190611353565b91505090565b60008060009054906101000a900473ffffffffffffffffffffffffffffffffffffffff1673ffffffffffffffffffffffffffffffffffffffff163373ffffffffffffffffffffffffffffffffffffffff1614610afa576040517f08c379a0000000000000000000000000000000000000000000000000000000008152600401610af19061131e565b60405180910390fd5b6000600160009054906101000a900473ffffffffffffffffffffffffffffffffffffffff1690508073ffffffffffffffffffffffffffffffffffffffff166370a0823160008054906101000a900473ffffffffffffffffffffffffffffffffffffffff166040518263ffffffff1660e01b8152600401610b7a919061108a565b602060405180830381865afa158015610b97573d6000803e3d6000fd5b505050506040513d601f19601f82011682018060405250810190610bbb9190611353565b91505090565b600033905090565b60025481565b60003411610c12576040517f08c379a0000000000000000000000000000000000000000000000000000000008152600401610c09906114c6565b60405180910390fd5b60008054906101000a900473ffffffffffffffffffffffffffffffffffffffff1673ffffffffffffffffffffffffffffffffffffffff166108fc349081150290604051600060405180830381858888f19350505050158015610c78573d6000803e3d6000fd5b50565b600080600160009054906101000a900473ffffffffffffffffffffffffffffffffffffffff16905060008173ffffffffffffffffffffffffffffffffffffffff166370a08231856040518263ffffffff1660e01b8152600401610cde919061108a565b602060405180830381865afa158015610cfb573d6000803e3d6000fd5b505050506040513d601f19601f82011682018060405250810190610d1f9190611353565b90508092505050919050565b606080600080600080600080600160009054906101000a900473ffffffffffffffffffffffffffffffffffffffff1690508073ffffffffffffffffffffffffffffffffffffffff166306fdde036040518163ffffffff1660e01b8152600401600060405180830381865afa158015610da7573d6000803e3d6000fd5b505050506040513d6000823e3d601f19601f82011682018060405250810190610dd0919061185f565b8173ffffffffffffffffffffffffffffffffffffffff166395d89b416040518163ffffffff1660e01b8152600401600060405180830381865afa158015610e1b573d6000803e3d6000fd5b505050506040513d6000823e3d601f19601f82011682018060405250810190610e44919061185f565b8273ffffffffffffffffffffffffffffffffffffffff166370a08231306040518263ffffffff1660e01b8152600401610e7d919061108a565b602060405180830381865afa158015610e9a573d6000803e3d6000fd5b505050506040513d601f19601f82011682018060405250810190610ebe9190611353565b8373ffffffffffffffffffffffffffffffffffffffff166318160ddd6040518163ffffffff1660e01b8152600401602060405180830381865afa158015610f09573d6000803e3d6000fd5b505050506040513d601f19601f82011682018060405250810190610f2d9190611353565b600254600160009054906101000a900473ffffffffffffffffffffffffffffffffffffffff1660035497509750975097509750975097505090919293949596565b60008054906101000a900473ffffffffffffffffffffffffffffffffffffffff1673ffffffffffffffffffffffffffffffffffffffff163373ffffffffffffffffffffffffffffffffffffffff1614610ffc576040517f08c379a0000000000000000000000000000000000000000000000000000000008152600401610ff39061131e565b60405180910390fd5b6000811161103f576040517f08c379a00000000000000000000000000000000000000000000000000000000081526004016110369061191a565b60405180910390fd5b8060028190555050565b600073ffffffffffffffffffffffffffffffffffffffff82169050919050565b600061107482611049565b9050919050565b61108481611069565b82525050565b600060208201905061109f600083018461107b565b92915050565b6000819050919050565b6110b8816110a5565b82525050565b60006020820190506110d360008301846110af565b92915050565b6000604051905090565b600080fd5b600080fd5b6110f681611069565b811461110157600080fd5b50565b600081359050611113816110ed565b92915050565b60006020828403121561112f5761112e6110e3565b5b600061113d84828501611104565b91505092915050565b600081519050919050565b600082825260208201905092915050565b60005b83811015611180578082015181840152602081019050611165565b60008484015250505050565b6000601f19601f8301169050919050565b60006111a882611146565b6111b28185611151565b93506111c2818560208601611162565b6111cb8161118c565b840191505092915050565b600060e08201905081810360008301526111f0818a61119d565b90508181036020830152611204818961119d565b905061121360408301886110af565b61122060608301876110af565b61122d60808301866110af565b61123a60a083018561107b565b61124760c08301846110af565b98975050505050505050565b61125c816110a5565b811461126757600080fd5b50565b60008135905061127981611253565b92915050565b600060208284031215611295576112946110e3565b5b60006112a38482850161126a565b91505092915050565b7f556e617574686f72697a65642120596f75277265206e6f7420746865206d616e60008201527f6167657221000000000000000000000000000000000000000000000000000000602082015250565b6000611308602583611151565b9150611313826112ac565b604082019050919050565b60006020820190508181036000830152611337816112fb565b9050919050565b60008151905061134d81611253565b92915050565b600060208284031215611369576113686110e3565b5b60006113778482850161133e565b91505092915050565b7f4e6f20746f6b656e206c65667420746f20776974686472617700000000000000600082015250565b60006113b6601983611151565b91506113c182611380565b602082019050919050565b600060208201905081810360008301526113e5816113a9565b9050919050565b6000604082019050611401600083018561107b565b61140e60208301846110af565b9392505050565b60008115159050919050565b61142a81611415565b811461143557600080fd5b50565b60008151905061144781611421565b92915050565b600060208284031215611463576114626110e3565b5b600061147184828501611438565b91505092915050565b7f506c6561736520706179206d6f7265207468656e203020756e69747300000000600082015250565b60006114b0601c83611151565b91506114bb8261147a565b602082019050919050565b600060208201905081810360008301526114df816114a3565b9050919050565b7f5472616e736665727265642076616c7565206d7573742062652067726561746560008201527f72207468616e20302e0000000000000000000000000000000000000000000000602082015250565b6000611542602983611151565b915061154d826114e6565b604082019050919050565b6000602082019050818103600083015261157181611535565b9050919050565b7f4e487b7100000000000000000000000000000000000000000000000000000000600052601260045260246000fd5b7f4e487b7100000000000000000000000000000000000000000000000000000000600052601160045260246000fd5b60006115e1826110a5565b91506115ec836110a5565b9250826115fc576115fb611578565b5b828204905092915050565b7f4e6f7420656e6f75676820746f6b656e7320617661696c61626c6520666f722060008201527f73616c652e000000000000000000000000000000000000000000000000000000602082015250565b6000611663602583611151565b915061166e82611607565b604082019050919050565b6000602082019050818103600083015261169281611656565b9050919050565b7f546f6b656e207472616e73666572206661696c65642100000000000000000000600082015250565b60006116cf601683611151565b91506116da82611699565b602082019050919050565b600060208201905081810360008301526116fe816116c2565b9050919050565b6000611710826110a5565b915061171b836110a5565b9250828201905080821115611733576117326115a7565b5b92915050565b600080fd5b600080fd5b7f4e487b7100000000000000000000000000000000000000000000000000000000600052604160045260246000fd5b61177b8261118c565b810181811067ffffffffffffffff8211171561179a57611799611743565b5b80604052505050565b60006117ad6110d9565b90506117b98282611772565b919050565b600067ffffffffffffffff8211156117d9576117d8611743565b5b6117e28261118c565b9050602081019050919050565b60006118026117fd846117be565b6117a3565b90508281526020810184848401111561181e5761181d61173e565b5b611829848285611162565b509392505050565b600082601f83011261184657611845611739565b5b81516118568482602086016117ef565b91505092915050565b600060208284031215611875576118746110e3565b5b600082015167ffffffffffffffff811115611893576118926110e8565b5b61189f84828501611831565b91505092915050565b7f53656c6c696e67207072696365206d757374206265206772656174657220746860008201527f616e20302e000000000000000000000000000000000000000000000000000000602082015250565b6000611904602583611151565b915061190f826118a8565b604082019050919050565b60006020820190508181036000830152611933816118f7565b905091905056fea264697066735822122061d1a6383a5d618001e893f13ce1a9cabb196d431ba9807c56f91472b4a7da4664736f6c634300081c0033",
	"linkReferences": {},
	"deployedLinkReferences": {}
}